{
  "contractName": "EventOrganizer",
  "abi": [
    {
      "inputs": [],
      "name": "eventId",
      "outputs": [
        {
          "internalType": "uint256",
          "name": "",
          "type": "uint256"
        }
      ],
      "stateMutability": "view",
      "type": "function",
      "constant": true
    },
    {
      "inputs": [
        {
          "internalType": "uint256",
          "name": "",
          "type": "uint256"
        }
      ],
      "name": "events",
      "outputs": [
        {
          "internalType": "address",
          "name": "owner",
          "type": "address"
        },
        {
          "internalType": "string",
          "name": "name",
          "type": "string"
        },
        {
          "internalType": "uint256",
          "name": "date",
          "type": "uint256"
        },
        {
          "internalType": "uint256",
          "name": "ticketPrice",
          "type": "uint256"
        },
        {
          "internalType": "uint256",
          "name": "ticketCount",
          "type": "uint256"
        },
        {
          "internalType": "uint256",
          "name": "ticketRemaining",
          "type": "uint256"
        }
      ],
      "stateMutability": "view",
      "type": "function",
      "constant": true
    },
    {
      "inputs": [
        {
          "internalType": "address",
          "name": "",
          "type": "address"
        },
        {
          "internalType": "uint256",
          "name": "",
          "type": "uint256"
        }
      ],
      "name": "tickets",
      "outputs": [
        {
          "internalType": "uint256",
          "name": "",
          "type": "uint256"
        }
      ],
      "stateMutability": "view",
      "type": "function",
      "constant": true
    },
    {
      "inputs": [
        {
          "internalType": "string",
          "name": "eventName",
          "type": "string"
        },
        {
          "internalType": "uint256",
          "name": "eventDate",
          "type": "uint256"
        },
        {
          "internalType": "uint256",
          "name": "price",
          "type": "uint256"
        },
        {
          "internalType": "uint256",
          "name": "eventCapacity",
          "type": "uint256"
        }
      ],
      "name": "createEvent",
      "outputs": [],
      "stateMutability": "nonpayable",
      "type": "function"
    },
    {
      "inputs": [
        {
          "internalType": "uint256",
          "name": "id",
          "type": "uint256"
        },
        {
          "internalType": "uint256",
          "name": "amount",
          "type": "uint256"
        }
      ],
      "name": "buyTicket",
      "outputs": [],
      "stateMutability": "payable",
      "type": "function",
      "payable": true
    },
    {
      "inputs": [
        {
          "internalType": "uint256",
          "name": "id",
          "type": "uint256"
        },
        {
          "internalType": "uint256",
          "name": "amount",
          "type": "uint256"
        },
        {
          "internalType": "address",
          "name": "to",
          "type": "address"
        }
      ],
      "name": "transferTicket",
      "outputs": [],
      "stateMutability": "nonpayable",
      "type": "function"
    }
  ],
  "bytecode": "0x608060405234801561001057600080fd5b50611230806100206000396000f3fe6080604052600436106100555760003560e01c80630374ab0b1461005a578063089cdd0c146100835780630b791430146100ae578063298ec208146100f0578063dae7a13c1461010c578063f086a09b14610149575b600080fd5b34801561006657600080fd5b50610081600480360381019061007c91906109b7565b610172565b005b34801561008f57600080fd5b50610098610340565b6040516100a59190610a4e565b60405180910390f35b3480156100ba57600080fd5b506100d560048036038101906100d09190610a69565b610346565b6040516100e796959493929190610b70565b60405180910390f35b61010a60048036038101906101059190610bd8565b61042a565b005b34801561011857600080fd5b50610133600480360381019061012e9190610c44565b610630565b6040516101409190610a4e565b60405180910390f35b34801561015557600080fd5b50610170600480360381019061016b9190610c84565b610655565b005b8242106101b4576040517f08c379a00000000000000000000000000000000000000000000000000000000081526004016101ab90610d49565b60405180910390fd5b600081116101f7576040517f08c379a00000000000000000000000000000000000000000000000000000000081526004016101ee90610ddb565b60405180910390fd5b6040518060c001604052803373ffffffffffffffffffffffffffffffffffffffff16815260200186868080601f016020809104026020016040519081016040528093929190818152602001838380828437600081840152601f19601f82011690508083019250505050505050815260200184815260200183815260200182815260200182815250600080600254815260200190815260200160002060008201518160000160006101000a81548173ffffffffffffffffffffffffffffffffffffffff021916908373ffffffffffffffffffffffffffffffffffffffff16021790555060208201518160010190805190602001906102f592919061086f565b5060408201518160020155606082015181600301556080820151816004015560a082015181600501559050506002600081548092919061033490610e2a565b91905055505050505050565b60025481565b60006020528060005260406000206000915090508060000160009054906101000a900473ffffffffffffffffffffffffffffffffffffffff169080600101805461038f90610ea2565b80601f01602080910402602001604051908101604052809291908181526020018280546103bb90610ea2565b80156104085780601f106103dd57610100808354040283529160200191610408565b820191906000526020600020905b8154815290600101906020018083116103eb57829003601f168201915b5050505050908060020154908060030154908060040154908060050154905086565b816000806000838152602001908152602001600020600201541415610484576040517f08c379a000000000000000000000000000000000000000000000000000000000815260040161047b90610f20565b60405180910390fd5b826000808281526020019081526020016000206002015442106104dc576040517f08c379a00000000000000000000000000000000000000000000000000000000081526004016104d390610f8c565b60405180910390fd5b82600080868152602001908152602001600020600301546104fd9190610fac565b34101561053f576040517f08c379a000000000000000000000000000000000000000000000000000000000815260040161053690611078565b60405180910390fd5b82600080868152602001908152602001600020600501541015610597576040517f08c379a000000000000000000000000000000000000000000000000000000000815260040161058e906110e4565b60405180910390fd5b8260008086815260200190815260200160002060050160008282546105bc9190611104565b9250508190555082600160003373ffffffffffffffffffffffffffffffffffffffff1673ffffffffffffffffffffffffffffffffffffffff168152602001908152602001600020600086815260200190815260200160002060008282546106239190611138565b9250508190555050505050565b6001602052816000526040600020602052806000526040600020600091509150505481565b8260008060008381526020019081526020016000206002015414156106af576040517f08c379a00000000000000000000000000000000000000000000000000000000081526004016106a690610f20565b60405180910390fd5b83600080828152602001908152602001600020600201544210610707576040517f08c379a00000000000000000000000000000000000000000000000000000000081526004016106fe90610f8c565b60405180910390fd5b83600160003373ffffffffffffffffffffffffffffffffffffffff1673ffffffffffffffffffffffffffffffffffffffff168152602001908152602001600020600087815260200190815260200160002054101561079a576040517f08c379a0000000000000000000000000000000000000000000000000000000008152600401610791906111da565b60405180910390fd5b83600160003373ffffffffffffffffffffffffffffffffffffffff1673ffffffffffffffffffffffffffffffffffffffff168152602001908152602001600020600087815260200190815260200160002060008282546107fa9190611104565b9250508190555083600160008573ffffffffffffffffffffffffffffffffffffffff1673ffffffffffffffffffffffffffffffffffffffff168152602001908152602001600020600087815260200190815260200160002060008282546108619190611138565b925050819055505050505050565b82805461087b90610ea2565b90600052602060002090601f01602090048101928261089d57600085556108e4565b82601f106108b657805160ff19168380011785556108e4565b828001600101855582156108e4579182015b828111156108e35782518255916020019190600101906108c8565b5b5090506108f191906108f5565b5090565b5b8082111561090e5760008160009055506001016108f6565b5090565b600080fd5b600080fd5b600080fd5b600080fd5b600080fd5b60008083601f8401126109415761094061091c565b5b8235905067ffffffffffffffff81111561095e5761095d610921565b5b60208301915083600182028301111561097a57610979610926565b5b9250929050565b6000819050919050565b61099481610981565b811461099f57600080fd5b50565b6000813590506109b18161098b565b92915050565b6000806000806000608086880312156109d3576109d2610912565b5b600086013567ffffffffffffffff8111156109f1576109f0610917565b5b6109fd8882890161092b565b95509550506020610a10888289016109a2565b9350506040610a21888289016109a2565b9250506060610a32888289016109a2565b9150509295509295909350565b610a4881610981565b82525050565b6000602082019050610a636000830184610a3f565b92915050565b600060208284031215610a7f57610a7e610912565b5b6000610a8d848285016109a2565b91505092915050565b600073ffffffffffffffffffffffffffffffffffffffff82169050919050565b6000610ac182610a96565b9050919050565b610ad181610ab6565b82525050565b600081519050919050565b600082825260208201905092915050565b60005b83811015610b11578082015181840152602081019050610af6565b83811115610b20576000848401525b50505050565b6000601f19601f8301169050919050565b6000610b4282610ad7565b610b4c8185610ae2565b9350610b5c818560208601610af3565b610b6581610b26565b840191505092915050565b600060c082019050610b856000830189610ac8565b8181036020830152610b978188610b37565b9050610ba66040830187610a3f565b610bb36060830186610a3f565b610bc06080830185610a3f565b610bcd60a0830184610a3f565b979650505050505050565b60008060408385031215610bef57610bee610912565b5b6000610bfd858286016109a2565b9250506020610c0e858286016109a2565b9150509250929050565b610c2181610ab6565b8114610c2c57600080fd5b50565b600081359050610c3e81610c18565b92915050565b60008060408385031215610c5b57610c5a610912565b5b6000610c6985828601610c2f565b9250506020610c7a858286016109a2565b9150509250929050565b600080600060608486031215610c9d57610c9c610912565b5b6000610cab868287016109a2565b9350506020610cbc868287016109a2565b9250506040610ccd86828701610c2f565b9150509250925092565b7f4576656e7420737461727420646174652073686f756c6420626520696e20667560008201527f747572652e000000000000000000000000000000000000000000000000000000602082015250565b6000610d33602583610ae2565b9150610d3e82610cd7565b604082019050919050565b60006020820190508181036000830152610d6281610d26565b9050919050565b7f4d696e696d756d20636170616369747920287469636b657420636f756e74292060008201527f73686f756c6420626520312e0000000000000000000000000000000000000000602082015250565b6000610dc5602c83610ae2565b9150610dd082610d69565b604082019050919050565b60006020820190508181036000830152610df481610db8565b9050919050565b7f4e487b7100000000000000000000000000000000000000000000000000000000600052601160045260246000fd5b6000610e3582610981565b91507fffffffffffffffffffffffffffffffffffffffffffffffffffffffffffffffff821415610e6857610e67610dfb565b5b600182019050919050565b7f4e487b7100000000000000000000000000000000000000000000000000000000600052602260045260246000fd5b60006002820490506001821680610eba57607f821691505b60208210811415610ece57610ecd610e73565b5b50919050565b7f4576656e7420646f6573206e6f742065786973742e0000000000000000000000600082015250565b6000610f0a601583610ae2565b9150610f1582610ed4565b602082019050919050565b60006020820190508181036000830152610f3981610efd565b9050919050565b7f4576656e74206973206e6f742061637469766520616e796d6f72652e00000000600082015250565b6000610f76601c83610ae2565b9150610f8182610f40565b602082019050919050565b60006020820190508181036000830152610fa581610f69565b9050919050565b6000610fb782610981565b9150610fc283610981565b9250817fffffffffffffffffffffffffffffffffffffffffffffffffffffffffffffffff0483118215151615610ffb57610ffa610dfb565b5b828202905092915050565b7f4e6f7420656e6f756768204554482069732073656e7420746f2070617920746860008201527f65207469636b6574732e00000000000000000000000000000000000000000000602082015250565b6000611062602a83610ae2565b915061106d82611006565b604082019050919050565b6000602082019050818103600083015261109181611055565b9050919050565b7f4e6f7420656e6f756768207469636b6574732e00000000000000000000000000600082015250565b60006110ce601383610ae2565b91506110d982611098565b602082019050919050565b600060208201905081810360008301526110fd816110c1565b9050919050565b600061110f82610981565b915061111a83610981565b92508282101561112d5761112c610dfb565b5b828203905092915050565b600061114382610981565b915061114e83610981565b9250827fffffffffffffffffffffffffffffffffffffffffffffffffffffffffffffffff0382111561118357611182610dfb565b5b828201905092915050565b7f4e6f7420656e6f756768207469636b65747320746f207472616e736665722e00600082015250565b60006111c4601f83610ae2565b91506111cf8261118e565b602082019050919050565b600060208201905081810360008301526111f3816111b7565b905091905056fea2646970667358221220ed9534beb6f211fda5bfec8ce8508b7166828802ceba5e419dbb0f54b52c954064736f6c634300080b0033",
  "immutableReferences": {},
  "source": "// SPDX-License-Identifier: MIT\npragma solidity >=0.4.22 <0.9.0;\n\ncontract EventOrganizer {\n  struct Event {\n    address owner;\n    string name;\n    uint date;\n    uint ticketPrice;\n    uint ticketCount;\n    uint ticketRemaining;\n  }\n  mapping(uint => Event) public events;\n  mapping(address => mapping(uint => uint)) public tickets;\n  uint public eventId;\n\n  function createEvent(string calldata eventName, uint eventDate, uint price, uint eventCapacity) external {\n    require(block.timestamp < eventDate, 'Event start date should be in future.');\n    require(eventCapacity > 0, 'Minimum capacity (ticket count) should be 1.');\n    events[eventId] = Event(msg.sender, eventName, eventDate, price, eventCapacity, eventCapacity);\n    eventId++;\n  }\n\n  function buyTicket(uint id, uint amount) eventExists(id) eventActive(id) payable external {\n    require(msg.value >= (events[id].ticketPrice * amount), 'Not enough ETH is sent to pay the tickets.');\n    require(events[id].ticketRemaining >= amount, 'Not enough tickets.');\n    events[id].ticketRemaining -= amount;\n    tickets[msg.sender][id] += amount;\n  }\n\n  function transferTicket(uint id, uint amount, address to) eventExists(id) eventActive(id) external {\n    require(tickets[msg.sender][id] >= amount, 'Not enough tickets to transfer.');\n    tickets[msg.sender][id] -= amount;\n    tickets[to][id] += amount;\n  }\n\n  modifier eventExists(uint id) {\n    require(events[id].date != 0, 'Event does not exist.');\n    _;\n  }\n\n  modifier eventActive(uint id) {\n    require(block.timestamp < events[id].date, 'Event is not active anymore.');\n    _;\n  }\n}\n",
  "sourcePath": "/var/www/html/dapp30/blockchain-event-organizer/contracts/EventOrganizer.sol",
  "compiler": {
    "name": "solc",
    "version": "0.8.11+commit.d7f03943.Emscripten.clang"
  },
  "schemaVersion": "3.4.4",
  "updatedAt": "2022-06-02T17:11:29.830Z",
  "networkType": "ethereum",
  "devdoc": {
    "kind": "dev",
    "methods": {},
    "version": 1
  },
  "userdoc": {
    "kind": "user",
    "methods": {},
    "version": 1
  }
}