{
  "contractName": "EventOrganizer",
  "abi": [
    {
      "inputs": [],
      "name": "eventId",
      "outputs": [
        {
          "internalType": "uint256",
          "name": "",
          "type": "uint256"
        }
      ],
      "stateMutability": "view",
      "type": "function",
      "constant": true
    },
    {
      "inputs": [
        {
          "internalType": "uint256",
          "name": "",
          "type": "uint256"
        }
      ],
      "name": "events",
      "outputs": [
        {
          "internalType": "uint256",
          "name": "id",
          "type": "uint256"
        },
        {
          "internalType": "address",
          "name": "owner",
          "type": "address"
        },
        {
          "internalType": "string",
          "name": "name",
          "type": "string"
        },
        {
          "internalType": "uint256",
          "name": "date",
          "type": "uint256"
        },
        {
          "internalType": "uint256",
          "name": "ticketPrice",
          "type": "uint256"
        },
        {
          "internalType": "uint256",
          "name": "ticketCount",
          "type": "uint256"
        },
        {
          "internalType": "uint256",
          "name": "ticketRemaining",
          "type": "uint256"
        }
      ],
      "stateMutability": "view",
      "type": "function",
      "constant": true
    },
    {
      "inputs": [
        {
          "internalType": "address",
          "name": "",
          "type": "address"
        },
        {
          "internalType": "uint256",
          "name": "",
          "type": "uint256"
        }
      ],
      "name": "tickets",
      "outputs": [
        {
          "internalType": "uint256",
          "name": "",
          "type": "uint256"
        }
      ],
      "stateMutability": "view",
      "type": "function",
      "constant": true
    },
    {
      "inputs": [
        {
          "internalType": "string",
          "name": "eventName",
          "type": "string"
        },
        {
          "internalType": "uint256",
          "name": "eventDate",
          "type": "uint256"
        },
        {
          "internalType": "uint256",
          "name": "price",
          "type": "uint256"
        },
        {
          "internalType": "uint256",
          "name": "eventCapacity",
          "type": "uint256"
        }
      ],
      "name": "createEvent",
      "outputs": [],
      "stateMutability": "nonpayable",
      "type": "function"
    },
    {
      "inputs": [
        {
          "internalType": "uint256",
          "name": "id",
          "type": "uint256"
        },
        {
          "internalType": "uint256",
          "name": "amount",
          "type": "uint256"
        }
      ],
      "name": "buyTicket",
      "outputs": [],
      "stateMutability": "payable",
      "type": "function",
      "payable": true
    },
    {
      "inputs": [
        {
          "internalType": "uint256",
          "name": "id",
          "type": "uint256"
        },
        {
          "internalType": "uint256",
          "name": "amount",
          "type": "uint256"
        },
        {
          "internalType": "address",
          "name": "to",
          "type": "address"
        }
      ],
      "name": "transferTicket",
      "outputs": [],
      "stateMutability": "nonpayable",
      "type": "function"
    },
    {
      "inputs": [],
      "name": "getAllEvents",
      "outputs": [
        {
          "components": [
            {
              "internalType": "uint256",
              "name": "id",
              "type": "uint256"
            },
            {
              "internalType": "address",
              "name": "owner",
              "type": "address"
            },
            {
              "internalType": "string",
              "name": "name",
              "type": "string"
            },
            {
              "internalType": "uint256",
              "name": "date",
              "type": "uint256"
            },
            {
              "internalType": "uint256",
              "name": "ticketPrice",
              "type": "uint256"
            },
            {
              "internalType": "uint256",
              "name": "ticketCount",
              "type": "uint256"
            },
            {
              "internalType": "uint256",
              "name": "ticketRemaining",
              "type": "uint256"
            }
          ],
          "internalType": "struct EventOrganizer.Event[]",
          "name": "",
          "type": "tuple[]"
        }
      ],
      "stateMutability": "view",
      "type": "function",
      "constant": true
    }
  ],
  "bytecode": "0x608060405234801561001057600080fd5b5061170f806100206000396000f3fe6080604052600436106100705760003560e01c8063298ec2081161004e578063298ec2081461010c578063c27a500d14610128578063dae7a13c14610153578063f086a09b1461019057610070565b80630374ab0b14610075578063089cdd0c1461009e5780630b791430146100c9575b600080fd5b34801561008157600080fd5b5061009c60048036038101906100979190610c42565b6101b9565b005b3480156100aa57600080fd5b506100b3610399565b6040516100c09190610cd9565b60405180910390f35b3480156100d557600080fd5b506100f060048036038101906100eb9190610cf4565b61039f565b6040516101039796959493929190610dfb565b60405180910390f35b61012660048036038101906101219190610e71565b610489565b005b34801561013457600080fd5b5061013d61068f565b60405161014a9190611077565b60405180910390f35b34801561015f57600080fd5b5061017a600480360381019061017591906110c5565b610868565b6040516101879190610cd9565b60405180910390f35b34801561019c57600080fd5b506101b760048036038101906101b29190611105565b61088d565b005b8242106101fb576040517f08c379a00000000000000000000000000000000000000000000000000000000081526004016101f2906111ca565b60405180910390fd5b6000811161023e576040517f08c379a00000000000000000000000000000000000000000000000000000000081526004016102359061125c565b60405180910390fd5b6040518060e0016040528060025481526020013373ffffffffffffffffffffffffffffffffffffffff16815260200186868080601f016020809104026020016040519081016040528093929190818152602001838380828437600081840152601f19601f8201169050808301925050505050505081526020018481526020018381526020018281526020018281525060008060025481526020019081526020016000206000820151816000015560208201518160010160006101000a81548173ffffffffffffffffffffffffffffffffffffffff021916908373ffffffffffffffffffffffffffffffffffffffff160217905550604082015181600201908051906020019061034e929190610aa7565b50606082015181600301556080820151816004015560a0820151816005015560c082015181600601559050506002600081548092919061038d906112ab565b91905055505050505050565b60025481565b60006020528060005260406000206000915090508060000154908060010160009054906101000a900473ffffffffffffffffffffffffffffffffffffffff16908060020180546103ee90611323565b80601f016020809104026020016040519081016040528092919081815260200182805461041a90611323565b80156104675780601f1061043c57610100808354040283529160200191610467565b820191906000526020600020905b81548152906001019060200180831161044a57829003601f168201915b5050505050908060030154908060040154908060050154908060060154905087565b8160008060008381526020019081526020016000206003015414156104e3576040517f08c379a00000000000000000000000000000000000000000000000000000000081526004016104da906113a1565b60405180910390fd5b8260008082815260200190815260200160002060030154421061053b576040517f08c379a00000000000000000000000000000000000000000000000000000000081526004016105329061140d565b60405180910390fd5b826000808681526020019081526020016000206004015461055c919061142d565b34101561059e576040517f08c379a0000000000000000000000000000000000000000000000000000000008152600401610595906114f9565b60405180910390fd5b826000808681526020019081526020016000206006015410156105f6576040517f08c379a00000000000000000000000000000000000000000000000000000000081526004016105ed90611565565b60405180910390fd5b82600080868152602001908152602001600020600601600082825461061b9190611585565b9250508190555082600160003373ffffffffffffffffffffffffffffffffffffffff1673ffffffffffffffffffffffffffffffffffffffff1681526020019081526020016000206000868152602001908152602001600020600082825461068291906115b9565b9250508190555050505050565b6060600060025467ffffffffffffffff8111156106af576106ae61160f565b5b6040519080825280602002602001820160405280156106e857816020015b6106d5610b2d565b8152602001906001900390816106cd5790505b50905060005b600254811015610860576000808281526020019081526020016000206040518060e0016040529081600082015481526020016001820160009054906101000a900473ffffffffffffffffffffffffffffffffffffffff1673ffffffffffffffffffffffffffffffffffffffff1673ffffffffffffffffffffffffffffffffffffffff16815260200160028201805461078590611323565b80601f01602080910402602001604051908101604052809291908181526020018280546107b190611323565b80156107fe5780601f106107d3576101008083540402835291602001916107fe565b820191906000526020600020905b8154815290600101906020018083116107e157829003601f168201915b505050505081526020016003820154815260200160048201548152602001600582015481526020016006820154815250508282815181106108425761084161163e565b5b60200260200101819052508080610858906112ab565b9150506106ee565b508091505090565b6001602052816000526040600020602052806000526040600020600091509150505481565b8260008060008381526020019081526020016000206003015414156108e7576040517f08c379a00000000000000000000000000000000000000000000000000000000081526004016108de906113a1565b60405180910390fd5b8360008082815260200190815260200160002060030154421061093f576040517f08c379a00000000000000000000000000000000000000000000000000000000081526004016109369061140d565b60405180910390fd5b83600160003373ffffffffffffffffffffffffffffffffffffffff1673ffffffffffffffffffffffffffffffffffffffff16815260200190815260200160002060008781526020019081526020016000205410156109d2576040517f08c379a00000000000000000000000000000000000000000000000000000000081526004016109c9906116b9565b60405180910390fd5b83600160003373ffffffffffffffffffffffffffffffffffffffff1673ffffffffffffffffffffffffffffffffffffffff16815260200190815260200160002060008781526020019081526020016000206000828254610a329190611585565b9250508190555083600160008573ffffffffffffffffffffffffffffffffffffffff1673ffffffffffffffffffffffffffffffffffffffff16815260200190815260200160002060008781526020019081526020016000206000828254610a9991906115b9565b925050819055505050505050565b828054610ab390611323565b90600052602060002090601f016020900481019282610ad55760008555610b1c565b82601f10610aee57805160ff1916838001178555610b1c565b82800160010185558215610b1c579182015b82811115610b1b578251825591602001919060010190610b00565b5b509050610b299190610b80565b5090565b6040518060e0016040528060008152602001600073ffffffffffffffffffffffffffffffffffffffff16815260200160608152602001600081526020016000815260200160008152602001600081525090565b5b80821115610b99576000816000905550600101610b81565b5090565b600080fd5b600080fd5b600080fd5b600080fd5b600080fd5b60008083601f840112610bcc57610bcb610ba7565b5b8235905067ffffffffffffffff811115610be957610be8610bac565b5b602083019150836001820283011115610c0557610c04610bb1565b5b9250929050565b6000819050919050565b610c1f81610c0c565b8114610c2a57600080fd5b50565b600081359050610c3c81610c16565b92915050565b600080600080600060808688031215610c5e57610c5d610b9d565b5b600086013567ffffffffffffffff811115610c7c57610c7b610ba2565b5b610c8888828901610bb6565b95509550506020610c9b88828901610c2d565b9350506040610cac88828901610c2d565b9250506060610cbd88828901610c2d565b9150509295509295909350565b610cd381610c0c565b82525050565b6000602082019050610cee6000830184610cca565b92915050565b600060208284031215610d0a57610d09610b9d565b5b6000610d1884828501610c2d565b91505092915050565b600073ffffffffffffffffffffffffffffffffffffffff82169050919050565b6000610d4c82610d21565b9050919050565b610d5c81610d41565b82525050565b600081519050919050565b600082825260208201905092915050565b60005b83811015610d9c578082015181840152602081019050610d81565b83811115610dab576000848401525b50505050565b6000601f19601f8301169050919050565b6000610dcd82610d62565b610dd78185610d6d565b9350610de7818560208601610d7e565b610df081610db1565b840191505092915050565b600060e082019050610e10600083018a610cca565b610e1d6020830189610d53565b8181036040830152610e2f8188610dc2565b9050610e3e6060830187610cca565b610e4b6080830186610cca565b610e5860a0830185610cca565b610e6560c0830184610cca565b98975050505050505050565b60008060408385031215610e8857610e87610b9d565b5b6000610e9685828601610c2d565b9250506020610ea785828601610c2d565b9150509250929050565b600081519050919050565b600082825260208201905092915050565b6000819050602082019050919050565b610ee681610c0c565b82525050565b610ef581610d41565b82525050565b600082825260208201905092915050565b6000610f1782610d62565b610f218185610efb565b9350610f31818560208601610d7e565b610f3a81610db1565b840191505092915050565b600060e083016000830151610f5d6000860182610edd565b506020830151610f706020860182610eec565b5060408301518482036040860152610f888282610f0c565b9150506060830151610f9d6060860182610edd565b506080830151610fb06080860182610edd565b5060a0830151610fc360a0860182610edd565b5060c0830151610fd660c0860182610edd565b508091505092915050565b6000610fed8383610f45565b905092915050565b6000602082019050919050565b600061100d82610eb1565b6110178185610ebc565b93508360208202850161102985610ecd565b8060005b8581101561106557848403895281516110468582610fe1565b945061105183610ff5565b925060208a0199505060018101905061102d565b50829750879550505050505092915050565b600060208201905081810360008301526110918184611002565b905092915050565b6110a281610d41565b81146110ad57600080fd5b50565b6000813590506110bf81611099565b92915050565b600080604083850312156110dc576110db610b9d565b5b60006110ea858286016110b0565b92505060206110fb85828601610c2d565b9150509250929050565b60008060006060848603121561111e5761111d610b9d565b5b600061112c86828701610c2d565b935050602061113d86828701610c2d565b925050604061114e868287016110b0565b9150509250925092565b7f4576656e7420737461727420646174652073686f756c6420626520696e20667560008201527f747572652e000000000000000000000000000000000000000000000000000000602082015250565b60006111b4602583610d6d565b91506111bf82611158565b604082019050919050565b600060208201905081810360008301526111e3816111a7565b9050919050565b7f4d696e696d756d20636170616369747920287469636b657420636f756e74292060008201527f73686f756c6420626520312e0000000000000000000000000000000000000000602082015250565b6000611246602c83610d6d565b9150611251826111ea565b604082019050919050565b6000602082019050818103600083015261127581611239565b9050919050565b7f4e487b7100000000000000000000000000000000000000000000000000000000600052601160045260246000fd5b60006112b682610c0c565b91507fffffffffffffffffffffffffffffffffffffffffffffffffffffffffffffffff8214156112e9576112e861127c565b5b600182019050919050565b7f4e487b7100000000000000000000000000000000000000000000000000000000600052602260045260246000fd5b6000600282049050600182168061133b57607f821691505b6020821081141561134f5761134e6112f4565b5b50919050565b7f4576656e7420646f6573206e6f742065786973742e0000000000000000000000600082015250565b600061138b601583610d6d565b915061139682611355565b602082019050919050565b600060208201905081810360008301526113ba8161137e565b9050919050565b7f4576656e74206973206e6f742061637469766520616e796d6f72652e00000000600082015250565b60006113f7601c83610d6d565b9150611402826113c1565b602082019050919050565b60006020820190508181036000830152611426816113ea565b9050919050565b600061143882610c0c565b915061144383610c0c565b9250817fffffffffffffffffffffffffffffffffffffffffffffffffffffffffffffffff048311821515161561147c5761147b61127c565b5b828202905092915050565b7f4e6f7420656e6f756768204554482069732073656e7420746f2070617920746860008201527f65207469636b6574732e00000000000000000000000000000000000000000000602082015250565b60006114e3602a83610d6d565b91506114ee82611487565b604082019050919050565b60006020820190508181036000830152611512816114d6565b9050919050565b7f4e6f7420656e6f756768207469636b6574732e00000000000000000000000000600082015250565b600061154f601383610d6d565b915061155a82611519565b602082019050919050565b6000602082019050818103600083015261157e81611542565b9050919050565b600061159082610c0c565b915061159b83610c0c565b9250828210156115ae576115ad61127c565b5b828203905092915050565b60006115c482610c0c565b91506115cf83610c0c565b9250827fffffffffffffffffffffffffffffffffffffffffffffffffffffffffffffffff038211156116045761160361127c565b5b828201905092915050565b7f4e487b7100000000000000000000000000000000000000000000000000000000600052604160045260246000fd5b7f4e487b7100000000000000000000000000000000000000000000000000000000600052603260045260246000fd5b7f4e6f7420656e6f756768207469636b65747320746f207472616e736665722e00600082015250565b60006116a3601f83610d6d565b91506116ae8261166d565b602082019050919050565b600060208201905081810360008301526116d281611696565b905091905056fea2646970667358221220a0384a96634fd57f339efd5d30d78fb3d181ad3c1908d8e5cd0909b29fdc246b64736f6c634300080b0033",
  "immutableReferences": {},
  "source": "// SPDX-License-Identifier: MIT\npragma solidity >=0.4.22 <0.9.0;\n\ncontract EventOrganizer {\n  struct Event {\n    uint id;\n    address owner;\n    string name;\n    uint date;\n    uint ticketPrice;\n    uint ticketCount;\n    uint ticketRemaining;\n  }\n  mapping(uint => Event) public events;\n  mapping(address => mapping(uint => uint)) public tickets;\n  uint public eventId;\n\n  function createEvent(string calldata eventName, uint eventDate, uint price, uint eventCapacity) external {\n    require(block.timestamp < eventDate, 'Event start date should be in future.');\n    require(eventCapacity > 0, 'Minimum capacity (ticket count) should be 1.');\n    events[eventId] = Event(eventId, msg.sender, eventName, eventDate, price, eventCapacity, eventCapacity);\n    eventId++;\n  }\n\n  function buyTicket(uint id, uint amount) eventExists(id) eventActive(id) payable external {\n    require(msg.value >= (events[id].ticketPrice * amount), 'Not enough ETH is sent to pay the tickets.');\n    require(events[id].ticketRemaining >= amount, 'Not enough tickets.');\n    events[id].ticketRemaining -= amount;\n    tickets[msg.sender][id] += amount;\n  }\n\n  function transferTicket(uint id, uint amount, address to) eventExists(id) eventActive(id) external {\n    require(tickets[msg.sender][id] >= amount, 'Not enough tickets to transfer.');\n    tickets[msg.sender][id] -= amount;\n    tickets[to][id] += amount;\n  }\n\n  function getAllEvents() external view returns (Event[] memory){\n    Event[] memory eventArray = new Event[](eventId);\n    for (uint i = 0; i < eventId; i++) {\n        eventArray[i] = events[i];\n    }\n    return eventArray;\n  }\n\n  modifier eventExists(uint id) {\n    require(events[id].date != 0, 'Event does not exist.');\n    _;\n  }\n\n  modifier eventActive(uint id) {\n    require(block.timestamp < events[id].date, 'Event is not active anymore.');\n    _;\n  }\n}\n",
  "sourcePath": "/var/www/html/dapp30/blockchain-event-organizer/contracts/EventOrganizer.sol",
  "compiler": {
    "name": "solc",
    "version": "0.8.11+commit.d7f03943.Emscripten.clang"
  },
  "schemaVersion": "3.4.4",
  "updatedAt": "2022-06-09T10:03:09.395Z",
  "networkType": "ethereum",
  "devdoc": {
    "kind": "dev",
    "methods": {},
    "version": 1
  },
  "userdoc": {
    "kind": "user",
    "methods": {},
    "version": 1
  }
}